{
  "contractName": "PredictionMarketV3Controller",
  "abi": [
    {
      "inputs": [
        {
          "internalType": "address",
          "name": "_PMV3",
          "type": "address"
        },
        {
          "internalType": "address",
          "name": "_realitioLibraryAddress",
          "type": "address"
        },
        {
          "internalType": "address",
          "name": "_PMV3Factory",
          "type": "address"
        }
      ],
      "stateMutability": "nonpayable",
      "type": "constructor"
    },
    {
      "anonymous": false,
      "inputs": [
        {
          "indexed": true,
          "internalType": "address",
          "name": "user",
          "type": "address"
        },
        {
          "indexed": true,
          "internalType": "address",
          "name": "token",
          "type": "address"
        },
        {
          "indexed": true,
          "internalType": "address",
          "name": "admin",
          "type": "address"
        }
      ],
      "name": "LandAdminAdded",
      "type": "event"
    },
    {
      "anonymous": false,
      "inputs": [
        {
          "indexed": true,
          "internalType": "address",
          "name": "user",
          "type": "address"
        },
        {
          "indexed": true,
          "internalType": "address",
          "name": "token",
          "type": "address"
        },
        {
          "indexed": true,
          "internalType": "address",
          "name": "admin",
          "type": "address"
        }
      ],
      "name": "LandAdminRemoved",
      "type": "event"
    },
    {
      "anonymous": false,
      "inputs": [
        {
          "indexed": true,
          "internalType": "address",
          "name": "user",
          "type": "address"
        },
        {
          "indexed": true,
          "internalType": "address",
          "name": "token",
          "type": "address"
        },
        {
          "indexed": true,
          "internalType": "address",
          "name": "tokenToAnswer",
          "type": "address"
        },
        {
          "indexed": false,
          "internalType": "uint256",
          "name": "amountLocked",
          "type": "uint256"
        }
      ],
      "name": "LandCreated",
      "type": "event"
    },
    {
      "anonymous": false,
      "inputs": [
        {
          "indexed": true,
          "internalType": "address",
          "name": "user",
          "type": "address"
        },
        {
          "indexed": true,
          "internalType": "address",
          "name": "token",
          "type": "address"
        },
        {
          "indexed": false,
          "internalType": "uint256",
          "name": "amountUnlocked",
          "type": "uint256"
        }
      ],
      "name": "LandDisabled",
      "type": "event"
    },
    {
      "anonymous": false,
      "inputs": [
        {
          "indexed": true,
          "internalType": "address",
          "name": "user",
          "type": "address"
        },
        {
          "indexed": true,
          "internalType": "address",
          "name": "token",
          "type": "address"
        },
        {
          "indexed": false,
          "internalType": "uint256",
          "name": "amountLocked",
          "type": "uint256"
        }
      ],
      "name": "LandEnabled",
      "type": "event"
    },
    {
      "anonymous": false,
      "inputs": [
        {
          "indexed": true,
          "internalType": "address",
          "name": "user",
          "type": "address"
        },
        {
          "indexed": true,
          "internalType": "address",
          "name": "token",
          "type": "address"
        },
        {
          "indexed": false,
          "internalType": "uint256",
          "name": "amountUnlocked",
          "type": "uint256"
        }
      ],
      "name": "LandOffsetUnlocked",
      "type": "event"
    },
    {
      "anonymous": false,
      "inputs": [
        {
          "indexed": true,
          "internalType": "address",
          "name": "previousOwner",
          "type": "address"
        },
        {
          "indexed": true,
          "internalType": "address",
          "name": "newOwner",
          "type": "address"
        }
      ],
      "name": "OwnershipTransferred",
      "type": "event"
    },
    {
      "inputs": [],
      "name": "PMV3",
      "outputs": [
        {
          "internalType": "address",
          "name": "",
          "type": "address"
        }
      ],
      "stateMutability": "view",
      "type": "function"
    },
    {
      "inputs": [],
      "name": "PMV3Factory",
      "outputs": [
        {
          "internalType": "address",
          "name": "",
          "type": "address"
        }
      ],
      "stateMutability": "view",
      "type": "function"
    },
    {
      "inputs": [
        {
          "internalType": "contract IERC20",
          "name": "landToken",
          "type": "address"
        },
        {
          "internalType": "address",
          "name": "admin",
          "type": "address"
        }
      ],
      "name": "addAdminToLand",
      "outputs": [],
      "stateMutability": "nonpayable",
      "type": "function"
    },
    {
      "inputs": [
        {
          "internalType": "contract IERC20",
          "name": "landToken",
          "type": "address"
        }
      ],
      "name": "disableLand",
      "outputs": [],
      "stateMutability": "nonpayable",
      "type": "function"
    },
    {
      "inputs": [
        {
          "internalType": "contract IERC20",
          "name": "landToken",
          "type": "address"
        }
      ],
      "name": "enableLand",
      "outputs": [],
      "stateMutability": "nonpayable",
      "type": "function"
    },
    {
      "inputs": [
        {
          "internalType": "contract IERC20",
          "name": "marketToken",
          "type": "address"
        },
        {
          "internalType": "address",
          "name": "user",
          "type": "address"
        }
      ],
      "name": "isAllowedToResolveMarket",
      "outputs": [
        {
          "internalType": "bool",
          "name": "",
          "type": "bool"
        }
      ],
      "stateMutability": "view",
      "type": "function"
    },
    {
      "inputs": [
        {
          "internalType": "contract IERC20",
          "name": "marketToken",
          "type": "address"
        }
      ],
      "name": "isIERC20TokenSocial",
      "outputs": [
        {
          "internalType": "bool",
          "name": "",
          "type": "bool"
        }
      ],
      "stateMutability": "view",
      "type": "function"
    },
    {
      "inputs": [
        {
          "internalType": "contract IERC20",
          "name": "marketToken",
          "type": "address"
        },
        {
          "internalType": "address",
          "name": "user",
          "type": "address"
        }
      ],
      "name": "isLandAdmin",
      "outputs": [
        {
          "internalType": "bool",
          "name": "",
          "type": "bool"
        }
      ],
      "stateMutability": "view",
      "type": "function"
    },
    {
      "inputs": [
        {
          "internalType": "address",
          "name": "",
          "type": "address"
        }
      ],
      "name": "landPermissions",
      "outputs": [
        {
          "internalType": "bool",
          "name": "openMarketCreation",
          "type": "bool"
        },
        {
          "internalType": "bool",
          "name": "openAdminManagement",
          "type": "bool"
        }
      ],
      "stateMutability": "view",
      "type": "function"
    },
    {
      "inputs": [
        {
          "internalType": "uint256",
          "name": "",
          "type": "uint256"
        }
      ],
      "name": "landTokens",
      "outputs": [
        {
          "internalType": "address",
          "name": "",
          "type": "address"
        }
      ],
      "stateMutability": "view",
      "type": "function"
    },
    {
      "inputs": [],
      "name": "landTokensLength",
      "outputs": [
        {
          "internalType": "uint256",
          "name": "",
          "type": "uint256"
        }
      ],
      "stateMutability": "view",
      "type": "function"
    },
    {
      "inputs": [
        {
          "internalType": "address",
          "name": "",
          "type": "address"
        }
      ],
      "name": "lands",
      "outputs": [
        {
          "internalType": "contract FantasyERC20",
          "name": "token",
          "type": "address"
        },
        {
          "internalType": "bool",
          "name": "active",
          "type": "bool"
        },
        {
          "internalType": "uint256",
          "name": "lockAmount",
          "type": "uint256"
        },
        {
          "internalType": "address",
          "name": "lockUser",
          "type": "address"
        },
        {
          "internalType": "contract IRealityETH_IERC20",
          "name": "realitio",
          "type": "address"
        }
      ],
      "stateMutability": "view",
      "type": "function"
    },
    {
      "inputs": [],
      "name": "lockAmount",
      "outputs": [
        {
          "internalType": "uint256",
          "name": "",
          "type": "uint256"
        }
      ],
      "stateMutability": "view",
      "type": "function"
    },
    {
      "inputs": [],
      "name": "owner",
      "outputs": [
        {
          "internalType": "address",
          "name": "",
          "type": "address"
        }
      ],
      "stateMutability": "view",
      "type": "function"
    },
    {
      "inputs": [],
      "name": "realitioFactory",
      "outputs": [
        {
          "internalType": "contract RealityETH_ERC20_Factory",
          "name": "",
          "type": "address"
        }
      ],
      "stateMutability": "view",
      "type": "function"
    },
    {
      "inputs": [
        {
          "internalType": "contract IERC20",
          "name": "landToken",
          "type": "address"
        },
        {
          "internalType": "address",
          "name": "admin",
          "type": "address"
        }
      ],
      "name": "removeAdminFromLand",
      "outputs": [],
      "stateMutability": "nonpayable",
      "type": "function"
    },
    {
      "inputs": [],
      "name": "renounceOwnership",
      "outputs": [],
      "stateMutability": "nonpayable",
      "type": "function"
    },
    {
      "inputs": [],
      "name": "token",
      "outputs": [
        {
          "internalType": "contract IERC20",
          "name": "",
          "type": "address"
        }
      ],
      "stateMutability": "view",
      "type": "function"
    },
    {
      "inputs": [
        {
          "internalType": "address",
          "name": "newOwner",
          "type": "address"
        }
      ],
      "name": "transferOwnership",
      "outputs": [],
      "stateMutability": "nonpayable",
      "type": "function"
    },
    {
      "inputs": [
        {
          "internalType": "contract IERC20",
          "name": "landToken",
          "type": "address"
        }
      ],
      "name": "unlockOffsetFromLand",
      "outputs": [],
      "stateMutability": "nonpayable",
      "type": "function"
    },
    {
      "inputs": [
        {
          "internalType": "uint256",
          "name": "newLockAmount",
          "type": "uint256"
        }
      ],
      "name": "updateLockAmount",
      "outputs": [],
      "stateMutability": "nonpayable",
      "type": "function"
    },
    {
      "inputs": [
        {
          "internalType": "string",
          "name": "name",
          "type": "string"
        },
        {
          "internalType": "string",
          "name": "symbol",
          "type": "string"
        },
        {
          "internalType": "uint256",
          "name": "tokenAmountToClaim",
          "type": "uint256"
        },
        {
          "internalType": "contract IERC20",
          "name": "tokenToAnswer",
          "type": "address"
        }
      ],
      "name": "createLand",
      "outputs": [
        {
          "internalType": "contract FantasyERC20",
          "name": "",
          "type": "address"
        }
      ],
      "stateMutability": "nonpayable",
      "type": "function"
    },
    {
      "inputs": [
        {
          "internalType": "contract FantasyERC20",
          "name": "landToken",
          "type": "address"
        },
        {
          "internalType": "contract IERC20",
          "name": "tokenToAnswer",
          "type": "address"
        }
      ],
      "name": "createLand",
      "outputs": [
        {
          "internalType": "contract FantasyERC20",
          "name": "",
          "type": "address"
        }
      ],
      "stateMutability": "nonpayable",
      "type": "function"
    },
    {
      "inputs": [
        {
          "internalType": "contract IERC20",
          "name": "landToken",
          "type": "address"
        },
        {
          "internalType": "bool",
          "name": "canCreate",
          "type": "bool"
        }
      ],
      "name": "setLandEveryoneCanCreateMarkets",
      "outputs": [],
      "stateMutability": "nonpayable",
      "type": "function"
    },
    {
      "inputs": [
        {
          "internalType": "contract IERC20",
          "name": "marketToken",
          "type": "address"
        },
        {
          "internalType": "address",
          "name": "user",
          "type": "address"
        }
      ],
      "name": "isAllowedToCreateMarket",
      "outputs": [
        {
          "internalType": "bool",
          "name": "",
          "type": "bool"
        }
      ],
      "stateMutability": "view",
      "type": "function"
    }
  ],
  "bytecode": "0x60a06040523480156200001157600080fd5b50604051620049c9380380620049c98339810160408190526200003491620001ab565b6200003f3362000130565b600180556001600160a01b038116620000ae5760405162461bcd60e51b815260206004820152602760248201527f504d5633466163746f727920616464726573732063616e6e6f742062652030206044820152666164647265737360c81b606482015260840160405180910390fd5b600280546001600160a01b0319166001600160a01b0385161790556040518290620000d99062000180565b6001600160a01b039091168152602001604051809103906000f08015801562000106573d6000803e3d6000fd5b50600580546001600160a01b0319166001600160a01b039283161790551660805250620001f59050565b600080546001600160a01b038381166001600160a01b0319831681178455604051919092169283917f8be0079c531659141344cd1fd0a4f28419497f9722a3daafe3b4186f6b6457e09190a35050565b6109ef8062003fda83390190565b80516001600160a01b0381168114620001a657600080fd5b919050565b600080600060608486031215620001c157600080fd5b620001cc846200018e565b9250620001dc602085016200018e565b9150620001ec604085016200018e565b90509250925092565b608051613dbb6200021f6000396000818161019d01528181610bf60152610cc40152613dbb6000f3fe60806040523480156200001157600080fd5b5060043610620001925760003560e01c806367d73c9111620000f05780638da5cb5b11620000a3578063d8df5dc1116200007a578063d8df5dc11462000490578063e50fba21146200049a578063f2fde38b14620004b1578063fc0c546a14620004c857600080fd5b80638da5cb5b1462000431578063d13acee11462000443578063d1aeb5c2146200047957600080fd5b806367d73c91146200038b5780636e3dd8ba14620003a257806370e9207814620003b6578063715018a614620003cd578063791e051914620003d757806386b5c5b1146200041a57600080fd5b806333b22760116200014957806333b22760146200028f5780633c37db6314620003165780633ccd4145146200032f5780634b3848bf14620003465780634fe62a5b146200035d5780635d341ae5146200037457600080fd5b80630c27c26c14620001975780631311758b14620001dc5780631cbe8a6514620001f557806325c7205914620002095780632ed26fce146200023157806330ccd17a1462000278575b600080fd5b620001bf7f000000000000000000000000000000000000000000000000000000000000000081565b6040516001600160a01b0390911681526020015b60405180910390f35b620001e660085481565b604051908152602001620001d3565b600254620001bf906001600160a01b031681565b620002206200021a3660046200185e565b620004dc565b6040519015158152602001620001d3565b62000260620002423660046200189c565b60096020526000908152604090205460ff8082169161010090041682565b604080519215158352901515602083015201620001d3565b620001bf62000289366004620018bc565b62000555565b620002df620002a03660046200189c565b60066020526000908152604090208054600282015460038301546004909301546001600160a01b0380841694600160a01b90940460ff16938116911685565b604080516001600160a01b039687168152941515602086015284019290925283166060830152909116608082015260a001620001d3565b6200032d62000327366004620018bc565b62000580565b005b6200032d620003403660046200189c565b62000643565b6200032d62000357366004620018e5565b620007c6565b6200032d6200036e3660046200185e565b62000869565b6200032d620003853660046200189c565b620009ae565b620001bf6200039c366004620019c3565b62000bd8565b600554620001bf906001600160a01b031681565b6200032d620003c73660046200189c565b62000cf3565b6200032d62000ed5565b62000220620003e83660046200185e565b6001600160a01b0391821660009081526006602090815260408083209390941682526001909201909152205460ff1690565b6200032d6200042b3660046200185e565b62000eed565b6000546001600160a01b0316620001bf565b62000220620004543660046200189c565b6001600160a01b0316600090815260066020526040902054600160a01b900460ff1690565b620002206200048a3660046200185e565b6200102d565b620001e660045481565b620001bf620004ab3660046200185e565b62001080565b6200032d620004c23660046200189c565b62001095565b600354620001bf906001600160a01b031681565b6001600160a01b03821660009081526006602052604081208054600160a01b900460ff1680156200054b57506001600160a01b038316600090815260018201602052604090205460ff16806200054b575080546001600160a01b031660009081526009602052604090205460ff165b9150505b92915050565b600781815481106200056657600080fd5b6000918252602090912001546001600160a01b0316905081565b6200058a62001114565b60008111620005eb5760405162461bcd60e51b815260206004820152602260248201527f4c6f636b20616d6f756e74206d7573742062652067726561746572207468616e604482015261020360f41b60648201526084015b60405180910390fd5b60045481036200063e5760405162461bcd60e51b815260206004820152601760248201527f4c6f636b20616d6f756e74206973207468652073616d650000000000000000006044820152606401620005e2565b600455565b6001600160a01b03811660009081526006602052604090208054600160a01b900460ff16620006865760405162461bcd60e51b8152600401620005e29062001a4c565b33600090815260018201602052604090205460ff16620006ba5760405162461bcd60e51b8152600401620005e29062001a79565b6000600454826002015411620006d2576000620006e6565b6004548260020154620006e6919062001abe565b90508015620007805760035460405163a9059cbb60e01b8152336004820152602481018390526001600160a01b039091169063a9059cbb906044016020604051808303816000875af115801562000741573d6000803e3d6000fd5b505050506040513d601f19601f8201168201806040525081019062000767919062001ad4565b508082600201546200077a919062001abe565b60028301555b6040518181526001600160a01b0384169033907f762d0a2a8e474a7f467752b8c7d24a08142b5a877a95ceb46dfbbda482ec46d7906020015b60405180910390a3505050565b6001600160a01b03821660009081526006602052604090208054600160a01b900460ff16620008095760405162461bcd60e51b8152600401620005e29062001a4c565b33600090815260018201602052604090205460ff166200083d5760405162461bcd60e51b8152600401620005e29062001a79565b506001600160a01b03919091166000908152600960205260409020805460ff1916911515919091179055565b6001600160a01b03821660009081526006602052604090208054600160a01b900460ff16620008ac5760405162461bcd60e51b8152600401620005e29062001a4c565b33600090815260018201602052604090205460ff16620008e05760405162461bcd60e51b8152600401620005e29062001a79565b8054604051632f2ff15d60e01b815260008051602062003d6683398151915260048201526001600160a01b03848116602483015290911690632f2ff15d90604401600060405180830381600087803b1580156200093c57600080fd5b505af115801562000951573d6000803e3d6000fd5b505050506001600160a01b03828116600081815260018481016020526040808320805460ff191690921790915551919286169133917fb8429069f85942f3e5ebf215afa8d573e550665bb50ea78f80e07500c4890a6891a4505050565b6001600160a01b03811660009081526006602052604090208054600160a01b900460ff161562000a1a5760405162461bcd60e51b81526020600482015260166024820152754c616e6420697320616c72656164792061637469766560501b6044820152606401620005e2565b33600090815260018201602052604090205460ff1662000a4e5760405162461bcd60e51b8152600401620005e29062001a79565b600081600201546004541162000a6657600062000a7a565b816002015460045462000a7a919062001abe565b9050801562000b03576003546040516323b872dd60e01b8152336004820152306024820152604481018390526001600160a01b03909116906323b872dd906064016020604051808303816000875af115801562000adb573d6000803e3d6000fd5b505050506040513d601f19601f8201168201806040525081019062000b01919062001ad4565b505b815460ff60a01b1916600160a01b178255600282015462000b2690829062001af4565b60028301556003820180546001600160a01b0319163317905560408051631fa5d41d60e11b815290516001600160a01b03851691633f4ba83a91600480830192600092919082900301818387803b15801562000b8157600080fd5b505af115801562000b96573d6000803e3d6000fd5b50506040518381526001600160a01b03861692503391507f9daf897774d766e38773bbeaf2f32d93fed4091373b77ebb7f5aee37417d1ab190602001620007b9565b60405163da490a3960e01b81523060048201523360248201526000907f00000000000000000000000000000000000000000000000000000000000000006001600160a01b03169063da490a3990604401602060405180830381865afa15801562000c46573d6000803e3d6000fd5b505050506040513d601f19601f8201168201806040525081019062000c6c919062001ad4565b62000cba5760405162461bcd60e51b815260206004820152601a60248201527f4e6f7420616c6c6f77656420746f20637265617465206c616e640000000000006044820152606401620005e2565b62000cea858585857f00000000000000000000000000000000000000000000000000000000000000003062001170565b95945050505050565b6001600160a01b03811660009081526006602052604090208054600160a01b900460ff1662000d5a5760405162461bcd60e51b81526020600482015260126024820152714c616e64206973206e6f742061637469766560701b6044820152606401620005e2565b33600090815260018201602052604090205460ff1662000d8e5760405162461bcd60e51b8152600401620005e29062001a79565b6002810154801562000e1a57600380549083015460405163a9059cbb60e01b81526001600160a01b0391821660048201526024810184905291169063a9059cbb906044016020604051808303816000875af115801562000df2573d6000803e3d6000fd5b505050506040513d601f19601f8201168201806040525081019062000e18919062001ad4565b505b815460ff60a01b191682556000600283018190556003830180546001600160a01b031916905560408051638456cb5960e01b815290516001600160a01b03861692638456cb59926004808201939182900301818387803b15801562000e7e57600080fd5b505af115801562000e93573d6000803e3d6000fd5b50506040518381526001600160a01b03861692503391507f76f76e951d717cb73ae423c4e4a029c5dde6ef38673c8f6a20cb9eb5025de59590602001620007b9565b62000edf62001114565b62000eeb6000620012cb565b565b6001600160a01b03821660009081526006602052604090208054600160a01b900460ff1662000f305760405162461bcd60e51b8152600401620005e29062001a4c565b33600090815260018201602052604090205460ff1662000f645760405162461bcd60e51b8152600401620005e29062001a79565b805460405163d547741f60e01b815260008051602062003d6683398151915260048201526001600160a01b0384811660248301529091169063d547741f90604401600060405180830381600087803b15801562000fc057600080fd5b505af115801562000fd5573d6000803e3d6000fd5b505050506001600160a01b038281166000818152600184016020526040808220805460ff1916905551919286169133917f5cb946ecb390cbf9c44ad43a7ed4ba5a5803844da9153e195a7235092436756091a4505050565b6001600160a01b03821660009081526006602052604081208054600160a01b900460ff1680156200054b57506001600160a01b038316600090815260018201602052604090205460ff1691505092915050565b60006200108e83836200131b565b9392505050565b6200109f62001114565b6001600160a01b038116620011065760405162461bcd60e51b815260206004820152602660248201527f4f776e61626c653a206e6577206f776e657220697320746865207a65726f206160448201526564647265737360d01b6064820152608401620005e2565b6200111181620012cb565b50565b6000546001600160a01b0316331462000eeb5760405162461bcd60e51b815260206004820181905260248201527f4f776e61626c653a2063616c6c6572206973206e6f7420746865206f776e65726044820152606401620005e2565b600080878787600260009054906101000a90046001600160a01b031687876040516200119c906200183a565b620011ad9695949392919062001b52565b604051809103906000f080158015620011ca573d6000803e3d6000fd5b50600254604051632f2ff15d60e01b815260008051602062003d6683398151915260048201526001600160a01b039182166024820152919250821690632f2ff15d90604401600060405180830381600087803b1580156200122a57600080fd5b505af11580156200123f573d6000803e3d6000fd5b5050604051632f2ff15d60e01b815260008051602062003d6683398151915260048201523360248201526001600160a01b0384169250632f2ff15d9150604401600060405180830381600087803b1580156200129a57600080fd5b505af1158015620012af573d6000803e3d6000fd5b50505050620012bf81866200131b565b98975050505050505050565b600080546001600160a01b038381166001600160a01b0319831681178455604051919092169283917f8be0079c531659141344cd1fd0a4f28419497f9722a3daafe3b4186f6b6457e09190a35050565b604051632474521560e21b81527f65d7a28e3265b37a6474929f336521b332c1681b933f6cb9f3376673440d862a60048201523060248201526000906001600160a01b038416906391d1485490604401602060405180830381865afa15801562001389573d6000803e3d6000fd5b505050506040513d601f19601f82011682018060405250810190620013af919062001ad4565b620014125760405162461bcd60e51b815260206004820152602c60248201527f4c616e64466163746f727920646f6573206e6f7420686176652070617573696e60448201526b672070726976696c6567657360a01b6064820152608401620005e2565b600454156200156657600480546003546040516370a0823160e01b8152339381019390935290916001600160a01b03909116906370a0823190602401602060405180830381865afa1580156200146c573d6000803e3d6000fd5b505050506040513d601f19601f8201168201806040525081019062001492919062001bac565b1015620014e25760405162461bcd60e51b815260206004820152601960248201527f4e6f7420656e6f75676820746f6b656e7320746f206c6f636b000000000000006044820152606401620005e2565b600354600480546040516323b872dd60e01b8152339281019290925230602483015260448201526001600160a01b03909116906323b872dd906064016020604051808303816000875af11580156200153e573d6000803e3d6000fd5b505050506040513d601f19601f8201168201806040525081019062001564919062001ad4565b505b6001600160a01b038216620015ca5760405162461bcd60e51b815260206004820152602360248201527f546f6b656e20746f20616e737765722063616e6e6f742062652030206164647260448201526265737360e81b6064820152608401620005e2565b6001600160a01b038316600081815260066020908152604080832080546001600160a81b0319168517600160a01b178155338085526001808301909452918420805460ff19168417905560045460028201556003810180546001600160a01b0319908116909317905560078054938401815584527fa66cc928b5edb82af9bd49922954155ab7b0942694bea4ce44661d9a8736c688909201805490911690931790925560088054916200167d8362001bc6565b909155505060055460405163316b373960e01b81526001600160a01b038581166004830152600092169063316b373990602401602060405180830381865afa158015620016ce573d6000803e3d6000fd5b505050506040513d601f19601f82011682018060405250810190620016f4919062001be2565b6001600160a01b0316036200176557600554604051633b937bbb60e11b81526001600160a01b03858116600483015290911690637726f77690602401600060405180830381600087803b1580156200174b57600080fd5b505af115801562001760573d6000803e3d6000fd5b505050505b60055460405163316b373960e01b81526001600160a01b0385811660048301529091169063316b373990602401602060405180830381865afa158015620017b0573d6000803e3d6000fd5b505050506040513d601f19601f82011682018060405250810190620017d6919062001be2565b600482810180546001600160a01b0319166001600160a01b03938416179055546040519081528482169186169033907fba6e51248e93514eb089243e4d08f26db16ff133606694000e7124a41ee5deb49060200160405180910390a4509192915050565b6121638062001c0383390190565b6001600160a01b03811681146200111157600080fd5b600080604083850312156200187257600080fd5b82356200187f8162001848565b91506020830135620018918162001848565b809150509250929050565b600060208284031215620018af57600080fd5b81356200108e8162001848565b600060208284031215620018cf57600080fd5b5035919050565b80151581146200111157600080fd5b60008060408385031215620018f957600080fd5b8235620019068162001848565b915060208301356200189181620018d6565b634e487b7160e01b600052604160045260246000fd5b600082601f8301126200194057600080fd5b813567ffffffffffffffff808211156200195e576200195e62001918565b604051601f8301601f19908116603f0116810190828211818310171562001989576200198962001918565b81604052838152866020858801011115620019a357600080fd5b836020870160208301376000602085830101528094505050505092915050565b60008060008060808587031215620019da57600080fd5b843567ffffffffffffffff80821115620019f357600080fd5b62001a01888389016200192e565b9550602087013591508082111562001a1857600080fd5b5062001a27878288016200192e565b93505060408501359150606085013562001a418162001848565b939692955090935050565b60208082526013908201527213185b9908191bd95cc81b9bdd08195e1a5cdd606a1b604082015260600190565b602080825260159082015274139bdd0818591b5a5b881bd9881d1a19481b185b99605a1b604082015260600190565b634e487b7160e01b600052601160045260246000fd5b818103818111156200054f576200054f62001aa8565b60006020828403121562001ae757600080fd5b81516200108e81620018d6565b808201808211156200054f576200054f62001aa8565b6000815180845260005b8181101562001b325760208185018101518683018201520162001b14565b506000602082860101526020601f19601f83011685010191505092915050565b60c08152600062001b6760c083018962001b0a565b828103602084015262001b7b818962001b0a565b604084019790975250506001600160a01b039384166060820152918316608083015290911660a09091015292915050565b60006020828403121562001bbf57600080fd5b5051919050565b60006001820162001bdb5762001bdb62001aa8565b5060010190565b60006020828403121562001bf557600080fd5b81516200108e816200184856fe60806040523480156200001157600080fd5b50604051620021633803806200216383398101604081905262000034916200035c565b85858181600562000046838262000494565b50600662000055828262000494565b50506007805460ff19169055506200006f60003362000115565b6200009b7f9f2df0fed2c77648de5860a4cc508cd0818c85b8b8a1ab4ceeef8d981c8956a63362000115565b620000c77f65d7a28e3265b37a6474929f336521b332c1681b933f6cb9f3376673440d862a3362000115565b5050600a93909355600980546001600160a01b03199081166001600160a01b0394851617909155600b8054821692841692909217909155600c80549091169190921617905550620005609050565b62000121828262000125565b5050565b6200013c82826200016860201b62000b8b1760201c565b60008281526001602090815260409091206200016391839062000c0f62000208821b17901c565b505050565b6000828152602081815260408083206001600160a01b038516845290915290205460ff1662000121576000828152602081815260408083206001600160a01b03851684529091529020805460ff19166001179055620001c43390565b6001600160a01b0316816001600160a01b0316837f2f8788117e7eff1d82e926ec794901d17c78024a50270940304540a733656f0d60405160405180910390a45050565b60006200021f836001600160a01b03841662000228565b90505b92915050565b6000818152600183016020526040812054620002715750815460018181018455600084815260208082209093018490558454848252828601909352604090209190915562000222565b50600062000222565b634e487b7160e01b600052604160045260246000fd5b600082601f830112620002a257600080fd5b81516001600160401b0380821115620002bf57620002bf6200027a565b604051601f8301601f19908116603f01168101908282118183101715620002ea57620002ea6200027a565b816040528381526020925086838588010111156200030757600080fd5b600091505b838210156200032b57858201830151818301840152908201906200030c565b600093810190920192909252949350505050565b80516001600160a01b03811681146200035757600080fd5b919050565b60008060008060008060c087890312156200037657600080fd5b86516001600160401b03808211156200038e57600080fd5b6200039c8a838b0162000290565b97506020890151915080821115620003b357600080fd5b50620003c289828a0162000290565b95505060408701519350620003da606088016200033f565b9250620003ea608088016200033f565b9150620003fa60a088016200033f565b90509295509295509295565b600181811c908216806200041b57607f821691505b6020821081036200043c57634e487b7160e01b600052602260045260246000fd5b50919050565b601f8211156200016357600081815260208120601f850160051c810160208610156200046b5750805b601f850160051c820191505b818110156200048c5782815560010162000477565b505050505050565b81516001600160401b03811115620004b057620004b06200027a565b620004c881620004c1845462000406565b8462000442565b602080601f831160018114620005005760008415620004e75750858301515b600019600386901b1c1916600185901b1785556200048c565b600085815260208120601f198616915b82811015620005315788860151825594840194600190910190840162000510565b5085821015620005505787850151600019600388901b60f8161c191681555b5050505050600190811b01905550565b611bf380620005706000396000f3fe608060405234801561001057600080fd5b50600436106101fb5760003560e01c80635c975abb1161011a578063a217fddf116100ad578063ca15c8731161007c578063ca15c87314610428578063d53913931461043b578063d547741f14610462578063dd62ed3e14610475578063e63ab1e91461048857600080fd5b8063a217fddf146103f2578063a457c2d7146103fa578063a9059cbb1461040d578063adb1f0d81461042057600080fd5b806387bbfe0a116100e957806387bbfe0a146103985780639010d07c146103c457806391d14854146103d757806395d89b41146103ea57600080fd5b80635c975abb1461034c57806370a082311461035457806379cc67901461037d5780638456cb591461039057600080fd5b8063313ce567116101925780633f4ba83a116101615780633f4ba83a1461031657806340c10f191461031e57806342966c681461033157806348c54b9d1461034457600080fd5b8063313ce567146102d857806336568abe146102e757806337a65725146102fa578063395093511461030357600080fd5b806323b872dd116101ce57806323b872dd14610262578063248a9ca3146102755780632a709b14146102985780632f2ff15d146102c357600080fd5b806301ffc9a71461020057806306fdde0314610228578063095ea7b31461023d57806318160ddd14610250575b600080fd5b61021361020e366004611846565b6104af565b60405190151581526020015b60405180910390f35b6102306104da565b60405161021f9190611894565b61021361024b3660046118de565b61056c565b6004545b60405190815260200161021f565b610213610270366004611908565b610584565b610254610283366004611944565b60009081526020819052604090206001015490565b6009546102ab906001600160a01b031681565b6040516001600160a01b03909116815260200161021f565b6102d66102d136600461195d565b6105a8565b005b6040516012815260200161021f565b6102d66102f536600461195d565b6105d2565b610254600a5481565b6102136103113660046118de565b610655565b6102d6610677565b6102d661032c3660046118de565b61071d565b6102d661033f366004611944565b6107bc565b6102d66107c9565b610213610866565b610254610362366004611989565b6001600160a01b031660009081526002602052604090205490565b6102d661038b3660046118de565b61092d565b6102d6610942565b6102136103a6366004611989565b6001600160a01b031660009081526008602052604090205460ff1690565b6102ab6103d23660046119a4565b6109e6565b6102136103e536600461195d565b610a05565b610230610a2e565b610254600081565b6102136104083660046118de565b610a3d565b61021361041b3660046118de565b610ab8565b6102d6610ac6565b610254610436366004611944565b610b24565b6102547f9f2df0fed2c77648de5860a4cc508cd0818c85b8b8a1ab4ceeef8d981c8956a681565b6102d661047036600461195d565b610b3b565b6102546104833660046119c6565b610b60565b6102547f65d7a28e3265b37a6474929f336521b332c1681b933f6cb9f3376673440d862a81565b60006001600160e01b03198216635a05180f60e01b14806104d457506104d482610c24565b92915050565b6060600580546104e9906119f0565b80601f0160208091040260200160405190810160405280929190818152602001828054610515906119f0565b80156105625780601f1061053757610100808354040283529160200191610562565b820191906000526020600020905b81548152906001019060200180831161054557829003601f168201915b5050505050905090565b60003361057a818585610c59565b5060019392505050565b600033610592858285610d7d565b61059d858585610df7565b506001949350505050565b6000828152602081905260409020600101546105c381610e9d565b6105cd8383610ea7565b505050565b6001600160a01b03811633146106475760405162461bcd60e51b815260206004820152602f60248201527f416363657373436f6e74726f6c3a2063616e206f6e6c792072656e6f756e636560448201526e103937b632b9903337b91039b2b63360891b60648201526084015b60405180910390fd5b6106518282610ec9565b5050565b60003361057a8185856106688383610b60565b6106729190611a40565b610c59565b6106a17f65d7a28e3265b37a6474929f336521b332c1681b933f6cb9f3376673440d862a33610a05565b6107135760405162461bcd60e51b815260206004820152603960248201527f45524332305072657365744d696e7465725061757365723a206d75737420686160448201527f76652070617573657220726f6c6520746f20756e706175736500000000000000606482015260840161063e565b61071b610eeb565b565b6107477f9f2df0fed2c77648de5860a4cc508cd0818c85b8b8a1ab4ceeef8d981c8956a633610a05565b6107b25760405162461bcd60e51b815260206004820152603660248201527f45524332305072657365744d696e7465725061757365723a206d7573742068616044820152751d99481b5a5b9d195c881c9bdb19481d1bc81b5a5b9d60521b606482015260840161063e565b6106518282610f3d565b6107c6338261100a565b50565b3360009081526008602052604090205460ff16156107f95760405162461bcd60e51b815260040161063e90611a53565b61080533600a54610f3d565b3360008181526008602052604090819020805460ff19166001179055600a5490517f9923b4306c6c030f2bdfbf156517d5983b87e15b96176da122cd4f2effa4ba7b9161085c914290918252602082015260400190565b60405180910390a2565b60008061087560075460ff1690565b600b549091506001600160a01b03161580159061089c5750600c546001600160a01b031615155b1561092857600b546001600160a01b031681806109245750600c54604051630617ed9d60e01b81526001600160a01b03918216600482015290821690630617ed9d90602401602060405180830381865afa1580156108fe573d6000803e3d6000fd5b505050506040513d601f19601f820116820180604052508101906109229190611aa3565b155b9150505b919050565b610938823383610d7d565b610651828261100a565b61096c7f65d7a28e3265b37a6474929f336521b332c1681b933f6cb9f3376673440d862a33610a05565b6109de5760405162461bcd60e51b815260206004820152603760248201527f45524332305072657365744d696e7465725061757365723a206d75737420686160448201527f76652070617573657220726f6c6520746f207061757365000000000000000000606482015260840161063e565b61071b61114a565b60008281526001602052604081206109fe9083611187565b9392505050565b6000918252602082815260408084206001600160a01b0393909316845291905290205460ff1690565b6060600680546104e9906119f0565b60003381610a4b8286610b60565b905083811015610aab5760405162461bcd60e51b815260206004820152602560248201527f45524332303a2064656372656173656420616c6c6f77616e63652062656c6f77604482015264207a65726f60d81b606482015260840161063e565b61059d8286868403610c59565b60003361057a818585610df7565b3360009081526008602052604090205460ff1615610af65760405162461bcd60e51b815260040161063e90611a53565b610afe6107c9565b6009546107c6906001600160a01b03166fffffffffffffffffffffffffffffffff61056c565b60008181526001602052604081206104d490611193565b600082815260208190526040902060010154610b5681610e9d565b6105cd8383610ec9565b6001600160a01b03918216600090815260036020908152604080832093909416825291909152205490565b610b958282610a05565b610651576000828152602081815260408083206001600160a01b03851684529091529020805460ff19166001179055610bcb3390565b6001600160a01b0316816001600160a01b0316837f2f8788117e7eff1d82e926ec794901d17c78024a50270940304540a733656f0d60405160405180910390a45050565b60006109fe836001600160a01b03841661119d565b60006001600160e01b03198216637965db0b60e01b14806104d457506301ffc9a760e01b6001600160e01b03198316146104d4565b6001600160a01b038316610cbb5760405162461bcd60e51b8152602060048201526024808201527f45524332303a20617070726f76652066726f6d20746865207a65726f206164646044820152637265737360e01b606482015260840161063e565b6001600160a01b038216610d1c5760405162461bcd60e51b815260206004820152602260248201527f45524332303a20617070726f766520746f20746865207a65726f206164647265604482015261737360f01b606482015260840161063e565b6001600160a01b0383811660008181526003602090815260408083209487168084529482529182902085905590518481527f8c5be1e5ebec7d5bd14f71427d1e84f3dd0314c0f7b2291e5b200ac8c7c3b925910160405180910390a3505050565b6000610d898484610b60565b90506000198114610df15781811015610de45760405162461bcd60e51b815260206004820152601d60248201527f45524332303a20696e73756666696369656e7420616c6c6f77616e6365000000604482015260640161063e565b610df18484848403610c59565b50505050565b6009546001600160a01b0384811691161480610e2057506009546001600160a01b038381169116145b610e925760405162461bcd60e51b815260206004820152603e60248201527f46616e7461737945524332303a20746f6b656e207472616e73666572206e6f7460448201527f20616c6c6f776564206265747765656e20746865206164647265737365730000606482015260840161063e565b6105cd8383836111ec565b6107c681336113a2565b610eb18282610b8b565b60008281526001602052604090206105cd9082610c0f565b610ed382826113fb565b60008281526001602052604090206105cd9082611460565b610ef3611475565b6007805460ff191690557f5db9ee0a495bf2e6ff9c91a7834c1ba4fdd244a5e8aa4e537bd38aeae4b073aa335b6040516001600160a01b03909116815260200160405180910390a1565b6001600160a01b038216610f935760405162461bcd60e51b815260206004820152601f60248201527f45524332303a206d696e7420746f20746865207a65726f206164647265737300604482015260640161063e565b610f9f600083836114c0565b8060046000828254610fb19190611a40565b90915550506001600160a01b0382166000818152600260209081526040808320805486019055518481527fddf252ad1be2c89b69c2b068fc378daa952ba7f163c4a11628f55a4df523b3ef910160405180910390a35050565b6001600160a01b03821661106a5760405162461bcd60e51b815260206004820152602160248201527f45524332303a206275726e2066726f6d20746865207a65726f206164647265736044820152607360f81b606482015260840161063e565b611076826000836114c0565b6001600160a01b038216600090815260026020526040902054818110156110ea5760405162461bcd60e51b815260206004820152602260248201527f45524332303a206275726e20616d6f756e7420657863656564732062616c616e604482015261636560f01b606482015260840161063e565b6001600160a01b03831660008181526002602090815260408083208686039055600480548790039055518581529192917fddf252ad1be2c89b69c2b068fc378daa952ba7f163c4a11628f55a4df523b3ef910160405180910390a3505050565b6111526114cb565b6007805460ff191660011790557f62e78cea01bee320cd4e420270b5ea74000d11b0c9f74754ebdbfc544b05a258610f203390565b60006109fe8383611513565b60006104d4825490565b60008181526001830160205260408120546111e4575081546001818101845560008481526020808220909301849055845484825282860190935260409020919091556104d4565b5060006104d4565b6001600160a01b0383166112505760405162461bcd60e51b815260206004820152602560248201527f45524332303a207472616e736665722066726f6d20746865207a65726f206164604482015264647265737360d81b606482015260840161063e565b6001600160a01b0382166112b25760405162461bcd60e51b815260206004820152602360248201527f45524332303a207472616e7366657220746f20746865207a65726f206164647260448201526265737360e81b606482015260840161063e565b6112bd8383836114c0565b6001600160a01b038316600090815260026020526040902054818110156113355760405162461bcd60e51b815260206004820152602660248201527f45524332303a207472616e7366657220616d6f756e7420657863656564732062604482015265616c616e636560d01b606482015260840161063e565b6001600160a01b0380851660008181526002602052604080822086860390559286168082529083902080548601905591517fddf252ad1be2c89b69c2b068fc378daa952ba7f163c4a11628f55a4df523b3ef906113959086815260200190565b60405180910390a3610df1565b6113ac8282610a05565b610651576113b98161153d565b6113c483602061154f565b6040516020016113d5929190611ac5565b60408051601f198184030181529082905262461bcd60e51b825261063e91600401611894565b6114058282610a05565b15610651576000828152602081815260408083206001600160a01b0385168085529252808320805460ff1916905551339285917ff6391f5c32d9c69d2a47ea670b442974b53935d1edc7fd64eb21e047a839171b9190a45050565b60006109fe836001600160a01b0384166116eb565b61147d610866565b61071b5760405162461bcd60e51b815260206004820152601460248201527314185d5cd8589b194e881b9bdd081c185d5cd95960621b604482015260640161063e565b6105cd8383836117de565b6114d3610866565b1561071b5760405162461bcd60e51b815260206004820152601060248201526f14185d5cd8589b194e881c185d5cd95960821b604482015260640161063e565b600082600001828154811061152a5761152a611b3a565b9060005260206000200154905092915050565b60606104d46001600160a01b03831660145b6060600061155e836002611b50565b611569906002611a40565b67ffffffffffffffff81111561158157611581611b67565b6040519080825280601f01601f1916602001820160405280156115ab576020820181803683370190505b509050600360fc1b816000815181106115c6576115c6611b3a565b60200101906001600160f81b031916908160001a905350600f60fb1b816001815181106115f5576115f5611b3a565b60200101906001600160f81b031916908160001a9053506000611619846002611b50565b611624906001611a40565b90505b600181111561169c576f181899199a1a9b1b9c1cb0b131b232b360811b85600f166010811061165857611658611b3a565b1a60f81b82828151811061166e5761166e611b3a565b60200101906001600160f81b031916908160001a90535060049490941c9361169581611b7d565b9050611627565b5083156109fe5760405162461bcd60e51b815260206004820181905260248201527f537472696e67733a20686578206c656e67746820696e73756666696369656e74604482015260640161063e565b600081815260018301602052604081205480156117d457600061170f600183611b94565b855490915060009061172390600190611b94565b905081811461178857600086600001828154811061174357611743611b3a565b906000526020600020015490508087600001848154811061176657611766611b3a565b6000918252602080832090910192909255918252600188019052604090208390555b855486908061179957611799611ba7565b6001900381819060005260206000200160009055905585600101600086815260200190815260200160002060009055600193505050506104d4565b60009150506104d4565b6117e6610866565b156105cd5760405162461bcd60e51b815260206004820152602a60248201527f45524332305061757361626c653a20746f6b656e207472616e736665722077686044820152691a5b19481c185d5cd95960b21b606482015260840161063e565b60006020828403121561185857600080fd5b81356001600160e01b0319811681146109fe57600080fd5b60005b8381101561188b578181015183820152602001611873565b50506000910152565b60208152600082518060208401526118b3816040850160208701611870565b601f01601f19169190910160400192915050565b80356001600160a01b038116811461092857600080fd5b600080604083850312156118f157600080fd5b6118fa836118c7565b946020939093013593505050565b60008060006060848603121561191d57600080fd5b611926846118c7565b9250611934602085016118c7565b9150604084013590509250925092565b60006020828403121561195657600080fd5b5035919050565b6000806040838503121561197057600080fd5b82359150611980602084016118c7565b90509250929050565b60006020828403121561199b57600080fd5b6109fe826118c7565b600080604083850312156119b757600080fd5b50508035926020909101359150565b600080604083850312156119d957600080fd5b6119e2836118c7565b9150611980602084016118c7565b600181811c90821680611a0457607f821691505b602082108103611a2457634e487b7160e01b600052602260045260246000fd5b50919050565b634e487b7160e01b600052601160045260246000fd5b808201808211156104d4576104d4611a2a565b60208082526030908201527f46616e7461737945524332303a206164647265737320616c726561647920636c60408201526f61696d65642074686520746f6b656e7360801b606082015260800190565b600060208284031215611ab557600080fd5b815180151581146109fe57600080fd5b7f416363657373436f6e74726f6c3a206163636f756e7420000000000000000000815260008351611afd816017850160208801611870565b7001034b99036b4b9b9b4b733903937b6329607d1b6017918401918201528351611b2e816028840160208801611870565b01602801949350505050565b634e487b7160e01b600052603260045260246000fd5b80820281158282048414176104d4576104d4611a2a565b634e487b7160e01b600052604160045260246000fd5b600081611b8c57611b8c611a2a565b506000190190565b818103818111156104d4576104d4611a2a565b634e487b7160e01b600052603160045260246000fdfea26469706673582212200a180bd76517920e0b56e6307e6845d5fef08bd68ec6f905e8bc5ab9e192446564736f6c634300081200339f2df0fed2c77648de5860a4cc508cd0818c85b8b8a1ab4ceeef8d981c8956a6a2646970667358221220171d6c2eb7efbe72a80b4176a2de8bc72a2accbcd6e74397003fa99c280ef84d64736f6c63430008120033608060405234801561001057600080fd5b506040516109ef3803806109ef83398101604081905261002f91610054565b600080546001600160a01b0319166001600160a01b0392909216919091179055610084565b60006020828403121561006657600080fd5b81516001600160a01b038116811461007d57600080fd5b9392505050565b61095c806100936000396000f3fe608060405234801561001057600080fd5b50600436106100415760003560e01c8063316b3739146100465780637726f7761461008b578063b816f513146100a0575b600080fd5b61006f61005436600461077c565b6001602052600090815260409020546001600160a01b031681565b6040516001600160a01b03909116815260200160405180910390f35b61009e61009936600461077c565b6100b3565b005b60005461006f906001600160a01b031681565b6001600160a01b0381811660009081526001602052604090205416156101455760405162461bcd60e51b815260206004820152603960248201527f54686572652073686f756c64206f6e6c79206265206f6e65206465706c6f796d60448201527f656e74207065722076657273696f6e2070657220746f6b656e00000000000000606482015260840160405180910390fd5b6000816001600160a01b031663313ce5676040518163ffffffff1660e01b8152600401602060405180830381865afa158015610185573d6000803e3d6000fd5b505050506040513d601f19601f820116820180604052508101906101a991906107ac565b90506000826001600160a01b03166395d89b416040518163ffffffff1660e01b8152600401600060405180830381865afa1580156101eb573d6000803e3d6000fd5b505050506040513d6000823e601f3d908101601f191682016040526102139190810190610809565b600080549192509061022d906001600160a01b031661072a565b60405163144fa6d760e01b81526001600160a01b0386811660048301529192509082169063144fa6d790602401600060405180830381600087803b15801561027457600080fd5b505af1158015610288573d6000803e3d6000fd5b50506040516383bf460960e01b815260206004820152603f60248201527f7b227469746c65223a20222573222c202274797065223a2022626f6f6c222c2060448201527f2263617465676f7279223a20222573222c20226c616e67223a20222573227d0060648201526001600160a01b03841692506383bf460991506084016020604051808303816000875af1158015610326573d6000803e3d6000fd5b505050506040513d601f19601f8201168201806040525081019061034a91906108b6565b506040516383bf460960e01b815260206004820152604f60248201527f7b227469746c65223a20222573222c202274797065223a202275696e74222c2060448201527f22646563696d616c73223a2031382c202263617465676f7279223a202225732260648201526e2c20226c616e67223a20222573227d60881b60848201526001600160a01b038216906383bf46099060a4016020604051808303816000875af11580156103fd573d6000803e3d6000fd5b505050506040513d601f19601f8201168201806040525081019061042191906108b6565b506040516383bf460960e01b815260206004820152605a60248201527f7b227469746c65223a20222573222c202274797065223a202273696e676c652d60448201527f73656c656374222c20226f7574636f6d6573223a205b25735d2c20226361746560648201527f676f7279223a20222573222c20226c616e67223a20222573227d00000000000060848201526001600160a01b038216906383bf46099060a4016020604051808303816000875af11580156104e2573d6000803e3d6000fd5b505050506040513d601f19601f8201168201806040525081019061050691906108b6565b506040516383bf460960e01b815260206004820152605c60248201527f7b227469746c65223a20222573222c202274797065223a20226d756c7469706c60448201527f652d73656c656374222c20226f7574636f6d6573223a205b25735d2c2022636160648201527f7465676f7279223a20222573222c20226c616e67223a20222573227d0000000060848201526001600160a01b038216906383bf46099060a4016020604051808303816000875af11580156105c7573d6000803e3d6000fd5b505050506040513d601f19601f820116820180604052508101906105eb91906108b6565b506040516383bf460960e01b815260206004820152604360248201527f7b227469746c65223a20222573222c202274797065223a20226461746574696d60448201527f65222c202263617465676f7279223a20222573222c20226c616e67223a20222560648201526273227d60e81b60848201526001600160a01b038216906383bf46099060a4016020604051808303816000875af1158015610692573d6000803e3d6000fd5b505050506040513d601f19601f820116820180604052508101906106b691906108b6565b506001600160a01b038481166000908152600160205260409081902080546001600160a01b03191692841692909217909155517fbe87db3b58b5f4d26d54d6f8a09bbab3eefdc8879ac48f5e21ccff2a1f50b0729061071c9083908790879087906108cf565b60405180910390a150505050565b6000808260601b9050604051733d602d80600a3d3981f3363d3d373d3d3d363d7360601b81528160148201526e5af43d82803e903d91602b57fd5bf360881b60288201526037816000f0949350505050565b60006020828403121561078e57600080fd5b81356001600160a01b03811681146107a557600080fd5b9392505050565b6000602082840312156107be57600080fd5b815160ff811681146107a557600080fd5b634e487b7160e01b600052604160045260246000fd5b60005b838110156108005781810151838201526020016107e8565b50506000910152565b60006020828403121561081b57600080fd5b815167ffffffffffffffff8082111561083357600080fd5b818401915084601f83011261084757600080fd5b815181811115610859576108596107cf565b604051601f8201601f19908116603f01168101908382118183101715610881576108816107cf565b8160405282815287602084870101111561089a57600080fd5b6108ab8360208301602088016107e5565b979650505050505050565b6000602082840312156108c857600080fd5b5051919050565b600060018060a01b03808716835280861660208401525060ff8416604083015260806060830152825180608084015261090f8160a08501602087016107e5565b601f01601f19169190910160a0019594505050505056fea26469706673582212200901921801295c1857ea1285857575b749b164c9a87fe108337110039b25924a64736f6c63430008120033",
  "immutableReferences": {
    "11603": [
      {
        "length": 32,
        "start": 413
      },
      {
        "length": 32,
        "start": 3062
      },
      {
        "length": 32,
        "start": 3268
      }
    ]
  },
  "source": "// SPDX-License-Identifier: MIT\npragma solidity ^0.8.18;\n\nimport \"./FantasyERC20.sol\";\nimport \"./RealityETH_ERC20_Factory.sol\";\nimport \"./IPredictionMarketV3Factory.sol\";\nimport \"./LandFactory.sol\";\n\n// openzeppelin ownable contract import\nimport \"@openzeppelin/contracts/access/Ownable.sol\";\nimport \"@openzeppelin/contracts/security/ReentrancyGuard.sol\";\n\ncontract PredictionMarketV3Controller is LandFactory {\n  address public immutable PMV3Factory; // PredictionMarketFactory contract\n  mapping(address => LandPermissions) public landPermissions;\n\n  // inherited variables from LandFactory\n  // address public immutable PMV3\n  // IERC20 public immutable token\n  // uint256 public lockAmount\n  // RealityETH_ERC20_Factory public immutable realitioFactory;\n  // mapping(address => Land) public lands;\n  // address[] public landTokens;\n  // uint256 public landTokensLength;\n\n  struct LandPermissions {\n    bool openMarketCreation;\n    bool openAdminManagement;\n  }\n\n  constructor(\n    address _PMV3,\n    address _realitioLibraryAddress,\n    address _PMV3Factory\n  ) {\n    require(_PMV3Factory != address(0), \"PMV3Factory address cannot be 0 address\");\n\n    PMV3 = _PMV3;\n    realitioFactory = new RealityETH_ERC20_Factory(_realitioLibraryAddress);\n    PMV3Factory = _PMV3Factory;\n  }\n\n  function createLand(\n    string memory name,\n    string memory symbol,\n    uint256 tokenAmountToClaim,\n    IERC20 tokenToAnswer\n  ) external override returns (FantasyERC20) {\n    require(IPredictionMarketV3Factory(PMV3Factory).isPMControllerAdmin(address(this), msg.sender), \"Not allowed to create land\");\n\n    // create a new fantasyERC20 token\n    return _createLand(name, symbol, tokenAmountToClaim, tokenToAnswer, PMV3Factory, address(this));\n  }\n\n  function setLandEveryoneCanCreateMarkets(IERC20 landToken, bool canCreate) external {\n    Land storage land = lands[address(landToken)];\n\n    require(land.active, \"Land does not exist\");\n    require(land.admins[msg.sender], \"Not admin of the land\");\n\n    landPermissions[address(landToken)].openMarketCreation = canCreate;\n  }\n\n  function isAllowedToCreateMarket(IERC20 marketToken, address user) public view override returns (bool) {\n    Land storage land = lands[address(marketToken)];\n\n    return land.active && (land.admins[user] || landPermissions[address(land.token)].openMarketCreation);\n  }\n}\n",
  "sourcePath": "/Users/emreyilmaz/Sites/polkamarkets/polkamarkets-js/contracts/PredictionMarketV3Controller.sol",
  "compiler": {
    "name": "solc",
    "version": "0.8.18+commit.87f61d96.Emscripten.clang"
  },
  "schemaVersion": "3.4.16",
  "updatedAt": "2024-07-03T15:42:26.825Z",
  "devdoc": {
    "kind": "dev",
    "methods": {
      "owner()": {
        "details": "Returns the address of the current owner."
      },
      "renounceOwnership()": {
        "details": "Leaves the contract without owner. It will not be possible to call `onlyOwner` functions anymore. Can only be called by the current owner. NOTE: Renouncing ownership will leave the contract without an owner, thereby removing any functionality that is only available to the owner."
      },
      "transferOwnership(address)": {
        "details": "Transfers ownership of the contract to a new account (`newOwner`). Can only be called by the current owner."
      }
    },
    "version": 1
  },
  "userdoc": {
    "kind": "user",
    "methods": {},
    "version": 1
  }
}