{
  "contractName": "PredictionMarketV3Querier",
  "abi": [
    {
      "inputs": [
        {
          "internalType": "contract IPredictionMarketV3",
          "name": "_PredictionMarketV3",
          "type": "address"
        }
      ],
      "stateMutability": "nonpayable",
      "type": "constructor"
    },
    {
      "inputs": [],
      "name": "PredictionMarketV3",
      "outputs": [
        {
          "internalType": "contract IPredictionMarketV3",
          "name": "",
          "type": "address"
        }
      ],
      "stateMutability": "view",
      "type": "function",
      "constant": true
    },
    {
      "inputs": [
        {
          "internalType": "uint256",
          "name": "marketId",
          "type": "uint256"
        },
        {
          "internalType": "address",
          "name": "user",
          "type": "address"
        }
      ],
      "name": "getUserMarketData",
      "outputs": [
        {
          "components": [
            {
              "internalType": "uint256",
              "name": "liquidityShares",
              "type": "uint256"
            },
            {
              "internalType": "uint256[]",
              "name": "outcomeShares",
              "type": "uint256[]"
            },
            {
              "internalType": "bool",
              "name": "winningsToClaim",
              "type": "bool"
            },
            {
              "internalType": "bool",
              "name": "winningsClaimed",
              "type": "bool"
            },
            {
              "internalType": "bool",
              "name": "liquidityToClaim",
              "type": "bool"
            },
            {
              "internalType": "bool",
              "name": "liquidityClaimed",
              "type": "bool"
            },
            {
              "internalType": "bool",
              "name": "voidedSharesToClaim",
              "type": "bool"
            }
          ],
          "internalType": "struct PredictionMarketV3Querier.UserMarketData",
          "name": "",
          "type": "tuple"
        }
      ],
      "stateMutability": "view",
      "type": "function",
      "constant": true
    },
    {
      "inputs": [
        {
          "internalType": "uint256[]",
          "name": "marketIds",
          "type": "uint256[]"
        },
        {
          "internalType": "address",
          "name": "user",
          "type": "address"
        }
      ],
      "name": "getUserMarketsData",
      "outputs": [
        {
          "components": [
            {
              "internalType": "uint256",
              "name": "liquidityShares",
              "type": "uint256"
            },
            {
              "internalType": "uint256[]",
              "name": "outcomeShares",
              "type": "uint256[]"
            },
            {
              "internalType": "bool",
              "name": "winningsToClaim",
              "type": "bool"
            },
            {
              "internalType": "bool",
              "name": "winningsClaimed",
              "type": "bool"
            },
            {
              "internalType": "bool",
              "name": "liquidityToClaim",
              "type": "bool"
            },
            {
              "internalType": "bool",
              "name": "liquidityClaimed",
              "type": "bool"
            },
            {
              "internalType": "bool",
              "name": "voidedSharesToClaim",
              "type": "bool"
            }
          ],
          "internalType": "struct PredictionMarketV3Querier.UserMarketData[]",
          "name": "",
          "type": "tuple[]"
        }
      ],
      "stateMutability": "view",
      "type": "function",
      "constant": true
    },
    {
      "inputs": [
        {
          "internalType": "address",
          "name": "user",
          "type": "address"
        }
      ],
      "name": "getUserAllMarketsData",
      "outputs": [
        {
          "components": [
            {
              "internalType": "uint256",
              "name": "liquidityShares",
              "type": "uint256"
            },
            {
              "internalType": "uint256[]",
              "name": "outcomeShares",
              "type": "uint256[]"
            },
            {
              "internalType": "bool",
              "name": "winningsToClaim",
              "type": "bool"
            },
            {
              "internalType": "bool",
              "name": "winningsClaimed",
              "type": "bool"
            },
            {
              "internalType": "bool",
              "name": "liquidityToClaim",
              "type": "bool"
            },
            {
              "internalType": "bool",
              "name": "liquidityClaimed",
              "type": "bool"
            },
            {
              "internalType": "bool",
              "name": "voidedSharesToClaim",
              "type": "bool"
            }
          ],
          "internalType": "struct PredictionMarketV3Querier.UserMarketData[]",
          "name": "",
          "type": "tuple[]"
        }
      ],
      "stateMutability": "view",
      "type": "function",
      "constant": true
    }
  ],
  "bytecode": "0x60a060405234801561001057600080fd5b50604051610aaa380380610aaa83398101604081905261002f91610040565b6001600160a01b0316608052610070565b60006020828403121561005257600080fd5b81516001600160a01b038116811461006957600080fd5b9392505050565b608051610a056100a560003960008181607f0152818160f201528181610258015281816102fb01526103760152610a056000f3fe608060405234801561001057600080fd5b506004361061004c5760003560e01c80633be1bf73146100515780637e0145e61461007a578063c9210bf4146100b9578063eb417d5a146100d9575b600080fd5b61006461005f3660046105cc565b6100ec565b60405161007191906106af565b60405180910390f35b6100a17f000000000000000000000000000000000000000000000000000000000000000081565b6040516001600160a01b039091168152602001610071565b6100cc6100c7366004610711565b610237565b604051610071919061073d565b6100646100e7366004610750565b6104b4565b606060007f00000000000000000000000000000000000000000000000000000000000000006001600160a01b031663ec2c90166040518163ffffffff1660e01b8152600401600060405180830381865afa15801561014e573d6000803e3d6000fd5b505050506040513d6000823e601f3d908101601f191682016040526101769190810190610885565b90506000815167ffffffffffffffff811115610194576101946107d4565b6040519080825280602002602001820160405280156101cd57816020015b6101ba610573565b8152602001906001900390816101b25790505b50905060005b825181101561022f576101ff8382815181106101f1576101f16108c2565b602002602001015186610237565b828281518110610211576102116108c2565b60200260200101819052508080610227906108d8565b9150506101d3565b509392505050565b61023f610573565b60405163220e7b2f60e11b8152600481018490526000907f00000000000000000000000000000000000000000000000000000000000000006001600160a01b03169063441cf65e90602401602060405180830381865afa1580156102a7573d6000803e3d6000fd5b505050506040513d601f19601f820116820180604052508101906102cb919061090f565b60405163b31eb89560e01b8152600481018690526001600160a01b038581166024830152919250600091829182917f0000000000000000000000000000000000000000000000000000000000000000169063b31eb89590604401600060405180830381865afa158015610342573d6000803e3d6000fd5b505050506040513d6000823e601f3d908101601f1916820160405261036a919081019061092a565b915091506000806000807f00000000000000000000000000000000000000000000000000000000000000006001600160a01b0316632c2aa24e8c8c6040518363ffffffff1660e01b81526004016103d49291909182526001600160a01b0316602082015260400190565b60a060405180830381865afa1580156103f1573d6000803e3d6000fd5b505050506040513d601f19601f820116820180604052508101906104159190610971565b509350935093509350871561046f5760005b855181101561046d576000868281518110610444576104446108c2565b6020026020010151111561045b576001975061046d565b80610465816108d8565b915050610427565b505b6040805160e081018252968752602087019590955292151593850193909352151560608401529015156080830152151560a082015290151560c0820152949350505050565b606060008367ffffffffffffffff8111156104d1576104d16107d4565b60405190808252806020026020018201604052801561050a57816020015b6104f7610573565b8152602001906001900390816104ef5790505b50905060005b8481101561056a5761053a86868381811061052d5761052d6108c2565b9050602002013585610237565b82828151811061054c5761054c6108c2565b60200260200101819052508080610562906108d8565b915050610510565b50949350505050565b6040805160e08101825260008082526060602083018190529282018190529181018290526080810182905260a0810182905260c081019190915290565b80356001600160a01b03811681146105c757600080fd5b919050565b6000602082840312156105de57600080fd5b6105e7826105b0565b9392505050565b600060e083018251845260208084015160e082870152828151808552610100880191508383019450600092505b8083101561063b578451825293830193600192909201919083019061061b565b5060408601519350610651604088018515159052565b60608601519350610666606088018515159052565b6080860151935061067b608088018515159052565b60a0860151935061069060a088018515159052565b60c086015193506106a560c088018515159052565b9695505050505050565b6000602080830181845280855180835260408601915060408160051b870101925083870160005b8281101561070457603f198886030184526106f28583516105ee565b945092850192908501906001016106d6565b5092979650505050505050565b6000806040838503121561072457600080fd5b82359150610734602084016105b0565b90509250929050565b6020815260006105e760208301846105ee565b60008060006040848603121561076557600080fd5b833567ffffffffffffffff8082111561077d57600080fd5b818601915086601f83011261079157600080fd5b8135818111156107a057600080fd5b8760208260051b85010111156107b557600080fd5b6020928301955093506107cb91860190506105b0565b90509250925092565b634e487b7160e01b600052604160045260246000fd5b600082601f8301126107fb57600080fd5b8151602067ffffffffffffffff80831115610818576108186107d4565b8260051b604051601f19603f8301168101818110848211171561083d5761083d6107d4565b60405293845285810183019383810192508785111561085b57600080fd5b83870191505b8482101561087a57815183529183019190830190610861565b979650505050505050565b60006020828403121561089757600080fd5b815167ffffffffffffffff8111156108ae57600080fd5b6108ba848285016107ea565b949350505050565b634e487b7160e01b600052603260045260246000fd5b6000600182016108f857634e487b7160e01b600052601160045260246000fd5b5060010190565b805180151581146105c757600080fd5b60006020828403121561092157600080fd5b6105e7826108ff565b6000806040838503121561093d57600080fd5b82519150602083015167ffffffffffffffff81111561095b57600080fd5b610967858286016107ea565b9150509250929050565b600080600080600060a0868803121561098957600080fd5b610992866108ff565b94506109a0602087016108ff565b93506109ae604087016108ff565b92506109bc606087016108ff565b915060808601519050929550929590935056fea264697066735822122042e2de10785f34f464fb6be691a448fe7da72035a519134656675fa49fb48b6264736f6c63430008120033",
  "immutableReferences": {
    "12579": [
      {
        "length": 32,
        "start": 127
      },
      {
        "length": 32,
        "start": 242
      },
      {
        "length": 32,
        "start": 600
      },
      {
        "length": 32,
        "start": 763
      },
      {
        "length": 32,
        "start": 886
      }
    ]
  },
  "source": "// SPDX-License-Identifier: MIT\npragma solidity ^0.8.18;\n\n// local imports\nimport \"./IPredictionMarketV3.sol\";\n\n/// @title Market Contract Factory\ncontract PredictionMarketV3Querier {\n  IPredictionMarketV3 public immutable PredictionMarketV3;\n\n  struct UserMarketData {\n    uint256 liquidityShares;\n    uint256[] outcomeShares;\n    bool winningsToClaim;\n    bool winningsClaimed;\n    bool liquidityToClaim;\n    bool liquidityClaimed;\n    bool voidedSharesToClaim;\n  }\n\n  /// @dev protocol is immutable and has no ownership\n  constructor(IPredictionMarketV3 _PredictionMarketV3) {\n    PredictionMarketV3 = _PredictionMarketV3;\n  }\n\n  function getUserMarketData(uint256 marketId, address user) public view returns (UserMarketData memory) {\n    bool isMarketVoided = PredictionMarketV3.isMarketVoided(marketId);\n    bool voidedSharesToClaim = false;\n\n    (uint256 liquidityShares, uint256[] memory outcomeShares) = PredictionMarketV3.getUserMarketShares(marketId, user);\n    (bool winningsToClaim, bool winningsClaimed, bool liquidityToClaim, bool liquidityClaimed, ) = PredictionMarketV3\n      .getUserClaimStatus(marketId, user);\n\n    if (isMarketVoided) {\n      for (uint256 i = 0; i < outcomeShares.length; i++) {\n        if (outcomeShares[i] > 0) {\n          voidedSharesToClaim = true;\n          break;\n        }\n      }\n    }\n\n    return\n      UserMarketData({\n        liquidityShares: liquidityShares,\n        outcomeShares: outcomeShares,\n        winningsToClaim: winningsToClaim,\n        winningsClaimed: winningsClaimed,\n        liquidityToClaim: liquidityToClaim,\n        liquidityClaimed: liquidityClaimed,\n        voidedSharesToClaim: voidedSharesToClaim\n      });\n  }\n\n  function getUserMarketsData(uint256[] calldata marketIds, address user)\n    external\n    view\n    returns (UserMarketData[] memory)\n  {\n    UserMarketData[] memory userMarketsData = new UserMarketData[](marketIds.length);\n\n    for (uint256 i = 0; i < marketIds.length; i++) {\n      userMarketsData[i] = getUserMarketData(marketIds[i], user);\n    }\n\n    return userMarketsData;\n  }\n\n  function getUserAllMarketsData(address user) external view returns (UserMarketData[] memory) {\n    uint256[] memory marketIds = PredictionMarketV3.getMarkets();\n    UserMarketData[] memory userMarketsData = new UserMarketData[](marketIds.length);\n\n    for (uint256 i = 0; i < marketIds.length; i++) {\n      userMarketsData[i] = getUserMarketData(marketIds[i], user);\n    }\n\n    return userMarketsData;\n  }\n}\n",
  "sourcePath": "/Users/emreyilmaz/Sites/polkamarkets/polkamarkets-js/contracts/PredictionMarketV3Querier.sol",
  "compiler": {
    "name": "solc",
    "version": "0.8.18+commit.87f61d96.Emscripten.clang"
  },
  "schemaVersion": "3.4.16",
  "updatedAt": "2024-07-03T16:14:09.772Z",
  "networkType": "ethereum",
  "devdoc": {
    "kind": "dev",
    "methods": {
      "constructor": {
        "details": "protocol is immutable and has no ownership"
      }
    },
    "title": "Market Contract Factory",
    "version": 1
  },
  "userdoc": {
    "kind": "user",
    "methods": {},
    "version": 1
  }
}